:020000040000fa
:0800000092a5040000000000bd
:020000040000fa
:04000800a80200004a
:020000040000fa
:04000c00a802000046
:020000040000fa
:04001000a802000042
:020000040000fa
:04001400a80200003e
:020000040000fa
:04001800a80200003a
:020000040000fa
:04001c00a802000036
:020000040000fa
:04002000a802000032
:020000040000fa
:04002400a80200002e
:020000040000fa
:04002800a80200002a
:020000040000fa
:04002c00a802000026
:020000040000fa
:04003000a802000022
:020000040000fa
:0400340014ae000006
:020000040000fa
:04003800a80200001a
:020000040000fa
:04003c00a802000016
:020000040000fa
:04004000a802000012
:020000040000fa
:040044001aae0000f0
:020000040000fa
:04004800a80200000a
:020000040000fa
:04004c00a802000006
:020000040000fa
:04005000a802000002
:020000040000fa
:04005400dcaa000022
:020000040000fa
:04005800e2aa000018
:020000040000fa
:04005c00a8020000f6
:020000040000fa
:04006000a8020000f2
:020000040000fa
:04006400a8020000ee
:020000040000fa
:04006800a8020000ea
:020000040000fa
:04006c00a8020000e6
:020000040000fa
:04007000a8020000e2
:020000040000fa
:0400740020ae0000ba
:020000040000fa
:04007800a8020000da
:020000040000fa
:04007c00a8020000d6
:020000040000fa
:04008000a8020000d2
:020000040000fa
:04008400a8020000ce
:020000040000fa
:04008800a8020000ca
:020000040000fa
:04008c00a8020000c6
:020000040000fa
:04009000a8020000c2
:020000040000fa
:04009400a8020000be
:020000040000fa
:04009800a8020000ba
:020000040000fa
:04009c00a8020000b6
:020000040000fa
:0400a000a8020000b2
:020000040000fa
:0400a400a8020000ae
:020000040000fa
:0400a800a8020000aa
:020000040000fa
:0400ac00a8020000a6
:020000040000fa
:0400b000a8020000a2
:020000040000fa
:0400b400a80200009e
:020000040000fa
:0400b800a80200009a
:020000040000fa
:0400bc00a802000096
:020000040000fa
:0400c000a802000092
:020000040000fa
:0400c400a80200008e
:020000040000fa
:0400c800a80200008a
:020000040000fa
:0400cc00a802000086
:020000040000fa
:0400d000a802000082
:020000040000fa
:0400d400a80200007e
:020000040000fa
:0400d800a80200007a
:020000040000fa
:0400dc00a802000076
:020000040000fa
:0400e000a802000072
:020000040000fa
:0400e400a80200006e
:020000040000fa
:0400e800a80200006a
:020000040000fa
:0400ec00a802000066
:020000040000fa
:0400f000a802000062
:020000040000fa
:0400f400a80200005e
:020000040000fa
:0400f800a80200005a
:020000040000fa
:0400fc00a802000056
:020000040000fa
:04010000a802000051
:020000040000fa
:04010400a80200004d
:020000040000fa
:04010800a802000049
:020000040000fa
:04010c00a802000045
:020000040000fa
:04011000a802000041
:020000040000fa
:04011400a80200003d
:020000040000fa
:04011800a802000039
:020000040000fa
:04011c00a802000035
:020000040000fa
:04012000a802000031
:020000040000fa
:04012400a80200002d
:020000040000fa
:04012800a802000029
:020000040000fa
:04012c0000ab000024
:020000040000fa
:04013000a802000021
:020000040000fa
:04013400a80200001d
:020000040000fa
:04013800a802000019
:020000040000fa
:04013c00a802000015
:020000040000fa
:04014000a802000011
:020000040000fa
:04014400a80200000d
:020000040000fa
:04014800a802000009
:020000040000fa
:04014c00a802000005
:020000040000fa
:04015000a802000001
:020000040000fa
:04015400a8020000fd
:020000040000fa
:04015800a8020000f9
:020000040000fa
:04015c00a8020000f5
:020000040000fa
:04016000a8020000f1
:020000040000fa
:04016400a8020000ed
:020000040000fa
:04016800a8020000e9
:020000040000fa
:04016c00a8020000e5
:020000040000fa
:04017000a8020000e1
:020000040000fa
:04017400a8020000dd
:020000040000fa
:04017800a8020000d9
:020000040000fa
:04017c00a8020000d5
:020000040000fa
:04018000a8020000d1
:020000040000fa
:04018400a8020000cd
:020000040000fa
:04018800a8020000c9
:020000040000fa
:04018c00a8020000c5
:020000040000fa
:04019000a8020000c1
:020000040000fa
:04019400a8020000bd
:020000040000fa
:04019800a8020000b9
:020000040000fa
:04019c00a8020000b5
:020000040000fa
:0401a000a8020000b1
:020000040000fa
:0401a400a8020000ad
:020000040000fa
:0401a800a8020000a9
:020000040000fa
:0401ac00a8020000a5
:020000040000fa
:0401b000a8020000a1
:020000040000fa
:0401b400a80200009d
:020000040000fa
:0401b800a802000099
:020000040000fa
:0401bc00a802000095
:020000040000fa
:0401c000a802000091
:020000040000fa
:0401c400a80200008d
:020000040000fa
:0401c800a802000089
:020000040000fa
:0401cc00a802000085
:020000040000fa
:0401d000a802000081
:020000040000fa
:0401d400a80200007d
:020000040000fa
:0401d800a802000079
:020000040000fa
:0401dc00a802000075
:020000040000fa
:0401e000a802000071
:020000040000fa
:0401e400a80200006d
:020000040000fa
:0401e800a802000069
:020000040000fa
:0401ec00a802000065
:020000040000fa
:0401f000a802000061
:020000040000fa
:0401f400a80200005d
:020000040000fa
:0401f800a802000059
:020000040000fa
:0401fc00a802000055
:020000040000fa
:04020000a802000050
:020000040000fa
:04020400a80200004c
:020000040000fa
:04020800a802000048
:020000040000fa
:04020c00a802000044
:020000040000fa
:04021000a802000040
:020000040000fa
:04021400a80200003c
:020000040000fa
:04021800a802000038
:020000040000fa
:04021c00a802000034
:020000040000fa
:04022000a802000030
:020000040000fa
:04022400a80200002c
:020000040000fa
:04022800a802000028
:020000040000fa
:04022c00a802000024
:020000040000fa
:04023000a802000020
:020000040000fa
:04023400a80200001c
:020000040000fa
:04023800a802000018
:020000040000fa
:04023c00a802000014
:020000040000fa
:04024000a802000010
:020000040000fa
:04024400a80200000c
:020000040000fa
:04024800a802000008
:020000040000fa
:04024c00a802000004
:020000040000fa
:04025000a802000000
:020000040000fa
:04025400a8020000fc
:020000040000fa
:04025800a8020000f8
:020000040000fa
:04025c00a8020000f4
:020000040000fa
:04026000a8020000f0
:020000040000fa
:04026400a8020000ec
:020000040000fa
:04026800a8020000e8
:020000040000fa
:04026c00a8020000e4
:020000040000fa
:04027000a8020000e0
:020000040000fa
:04027400a8020000dc
:020000040000fa
:04027800a8020000d8
:020000040000fa
:04027c00a8020000d4
:020000040000fa
:04028000a8020000d0
:020000040000fa
:10040000a1028800800078000000eb001a0037008d
:10041000e280400054a0b4009101ba00e2804000a4
:1004200054a0b4009102ba00e280400054a0b4008d
:100430000002eb00472bde00f507b200a6018800a2
:10044000602ce10008003a000049eb000201e800de
:10045000020039003420ec0002f0a0008301e90022
:10046000f9ff3e00040037006128e100010032007e
:100470000082eb000b00070011c3ba001101ba00a3
:100480000604e00003003a000200e000e0ff3a004a
:1004900000000600f607b200a6028800820078007d
:1004a000f5ff370004d0a300e20f49001c0039001b
:1004b000810278003549ba000201e80002003900e3
:1004c0003420ec0002f0a0008301e9000f003200ac
:1004d0002549ba000201e800020039003420ec008e
:1004e00002f0a0008301e900080032000400e000ef
:1004f0000600320015c9ba000201e8000200390006
:100500003420ec0002f0a0008301e9008180e800c3
:1005100054a0b4000300e000e2ff3a00000006002f
:100520009102ba00055978008301e900f7ff320013
:10053000c82ade00055978008301e900f3ff320084
:100540000400e000f1ff320011d9ba00eeff3700dd
:080550000040da000000fe008b
:020000040000fa
:10200000a2ff00009aa200003fa900001085000076
:1020100042a90000b0850000436c000042000000af
:102020004ca00000b3000000d1b300001b0d000065
:102030000a36000035430000303200002041000025
:102040004e530000204600006f72000074680000cc
:10205000205b0000313500002e300000375d0000ad
:102060000d0a000078b300007bb40000b501000049
:1020700015020000f00d0000e8e80000e640000056
:10208000e6400000d0020000e64100004cb5000030
:10209000b3e80000e8b2000040a80000e6400000fd
:1020a000b240000085410000844000004cb50000b3
:1020b000b3a9000044a00000004c000084b0000060
:1020c000000000008448000045520000454c00001c
:1020d000a0b3000059b0000030b10000abb4000064
:1020e00060b000008442000041530000454c0000f5
:1020f000e2b300000000000070b00000813000007a
:10210000a9000000a0000000caca0000950100005c
:10211000940200004cb50000b37c0000b0850000c4
:10212000414c0000494700004ea900000124000076
:1021300044f0000006e6000044d0000002e6000083
:10214000454c0000b5b300008db000008741000091
:102150004c490000474e000045440000a901000022
:1021600034010000f0060000f6010000d00200007b
:10217000f60200004cb50000b3a40000b0850000da
:10218000434500004c4c00002b180000a902000041
:10219000750100009501000090020000f6020000a9
:1021a0004cb50000b3bd0000b08500004345000001
:1021b0004c4c0000534c00003fb30000d3b0000073
:1021c0008543000048410000522b00004c210000d4
:1021d000b3de0000b085000043480000415200001b
:1021e000534c0000b5b30000e9b0000081210000ad
:1021f000b503000081010000f6010000d0020000dc
:10220000f6020000b504000081010000e8e80000cb
:10221000e8e800004cb50000b3f40000b082000014
:102220002b21000018b500000361000001810000af
:1022300001f6000001d0000002f6000002b5000027
:10224000046100000181000001e80000e8e80000ee
:10225000e84c0000b5b300000db100008140000063
:10226000a1010000a8f6000001d0000002f6000065
:1022700002a100000195000002940000014c000042
:10228000b5b300002cb100008243000021b500006e
:102290000381000001e80000e8e80000e84c0000cd
:1022a000b5b3000042b100008243000040a100002d
:1022b0000195000001740000024c0000b5b300005d
:1022c00052b10000812c00004ca00000b3000000bf
:1022d00067b0000024b20000deb10000f8b00000da
:1022e000c5b0000059b00000f8b00000abb4000069
:1022f00060b1000085320000445200004f500000e1
:10230000e8e80000e8e800004cb50000b378000001
:10231000b18400003244000055500000caca0000d9
:10232000caca0000b505000095010000b50600000e
:1023300095020000b507000095030000b5080000f5
:10234000950400004cb50000b3870000b184000084
:10235000445200004f500000e8e800004cb5000077
:10236000b3a50000b18300004455000050ca00002e
:10237000cab500000395000001b5000004950000f7
:10238000024c0000b5b30000b1b10000834e000064
:1023900049500000b501000095030000b50200009f
:1023a00095040000e8e800004cb50000b3c400004c
:1023b000b18400004f56000045520000caca000018
:1023c000b505000095010000b5060000950200006b
:1023d0004cb50000b3d70000b1830000524f00009d
:1023e000544c0000b5b30000ebb100008353000073
:1023f00050210000b5010000aa4c0000b5b3000058
:10240000f4b1000083530000504000008aca00006d
:10241000ca95000001740000024c0000b5b3000032
:1024200000b200008353000050300000a93f0000bc
:10243000a00000004c840000b0100000b284000036
:102440005357000041500000b5010000b4030000e4
:102450009401000095030000b5020000b4040000e0
:1024600094020000950400004cb50000b31d00006c
:10247000b284000054550000434b00004ca0000003
:10248000b300000024b20000deb10000abb40000d5
:1024900037b20000823e000052b500000248000042
:1024a000b501000048e80000e84c0000b5b30000aa
:1024b00048b20000825200003eca0000ca68000014
:1024c0009501000068950000024c0000b5b30000c3
:1024d00058b2000082520000406800007a5a0000a2
:1024e000684c000084b0000068b200008352000015
:1024f00050300000a9ff0000a00100004c84000043
:10250000b0740000b283000052500000218a000025
:10251000a8b5000001aa00009a980000aae80000ef
:10252000e84c0000b5b3000081b200008341000018
:102530004e440000b5010000350300009503000083
:10254000b50200003504000095040000e8e8000032
:102550004cb50000b3940000b2860000494e000064
:102560005645000052540000a9ff0000550100002c
:1025700095010000a9ff000055020000950200002f
:102580004cb50000b3ab0000b28200004f52000017
:10259000b50100001503000095030000b50200001e
:1025a0001504000095040000e8e800004cb50000a8
:1025b000b3c30000b2830000584f000052b50000c2
:1025c000015500000395000003b50000025500000e
:1025d0000495000004e80000e84c0000b5b30000da
:1025e000d9b20000812b000018b50000037500006f
:1025f0000195000003b5000004750000029500007d
:1026000004e80000e84c0000b5b30000f0b20000a0
:10261000812d000038b5000003f500000195000091
:1026200003b5000004f500000295000004e8000076
:10263000e84c0000b5b3000006b300008231000092
:102640002bf6000001d0000002f60000024c000052
:10265000b5b300001cb30000823100002db50000ae
:1026600001d0000002d6000002d60000014c00009c
:10267000b5b300002ab30000823200002a16000021
:1026800001360000024c0000b5b300003ab3000070
:10269000823200002fb5000002c9000080760000e1
:1026a00002760000014c0000b5b3000046b3000004
:1026b000854300004f5500004e540000caca000078
:1026c000a10300009501000074020000f603000061
:1026d000d0020000f60400004cb50000b356000024
:1026e000b38600004e4f0000524d0000414c0000e8
:1026f0004ca00000b3000000b7b1000036b00000ed
:1027000098b30000deb10000f4b2000024b2000073
:1027100002b4000020b4000057b10000e1b4000092
:1027200033b400008ab300004bb000009ab300003d
:1027300080b10000abb400006fb30000813a00002c
:10274000a541000048a500004048000018a5000071
:102750004269000004290000fe85000040a5000039
:10276000436900000085000041b200004085000080
:1027700042e6000040b200004085000043e6000051
:1027800040d0000002e60000416c00004200000062
:102790009cb30000c13b0000c8b30000c25300005e
:1027a000224c0000a0b300005db200005eb3000048
:1027b0008eb10000f4b20000aeb000004db20000d7
:1027c000abb400004cb50000b3cc0000b3c50000b2
:1027d0002b4c00004f4f000050e50000b3c5000037
:1027e00041470000414900004eed0000b3c5000024
:1027f00042450000474900004ef50000b3c200000a
:10280000444f0000b504000048b500000348000034
:10281000b502000048b5000001480000e8e80000eb
:10282000e8e800004cb50000b3fd0000b3c40000b0
:10283000454c00005345000015b40000c14900009c
:10284000687a00005a4800004c840000b01c000068
:10285000b4c200004946000027b40000c44c000088
:102860004f4f0000508a0000a8ba0000fe0100008f
:1028700001d0000003fe00000201000018bd0000ae
:1028800003010000fd01000001bd00000401000083
:10289000fd020000010a000008980000aa280000bc
:1028a0009007000068680000686800004c3e000067
:1028b000b04c00004bb000002cb40000c454000029
:1028c000484500004e5c0000b4860000554e0000f4
:1028d0004c4f00004f50000068680000686800001e
:1028e0004cb50000b3630000b48500004142000015
:1028f0004f520000544c0000a0b3000016b200007c
:10290000fab10000cdb4000073b4000086410000ad
:10291000424f00005254000022840000b48700009f
:1029200045580000454300005554000045b50000df
:102930000185000042b500000285000043e8000068
:10294000e86c0000420000008db4000084450000e7
:102950005849000054680000854000006885000068
:10296000414c0000b5b30000a4b400008949000048
:102970004e540000455200005052000045540000e3
:102980004ca00000b3000000abb40000b4b40000e1
:102990008451000055490000544c0000a0b30000d1
:1029a0007ab2000087b20000c0b400004bb0000053
:1029b000d4b40000c6b40000844500004d490000b6
:1029c000540200000089000004f00000fab5000085
:1029d0000102000004e80000e84c0000b5b300006c
:1029e000dab40000834b00004559000002000000eb
:1029f00089020000f0fa0000caca000002050000c7
:102a000095010000740200004cb50000b3f0000016
:102a1000b48400004b450000593f00000200000054
:102a200029020000f0020000a9ff0000caca00004d
:102a300095010000950200004cb50000b340000075
:102a40004000000000000000000000000000000046
:102a50000000000000000000000000000000000076
:102a60000000000000000000000000000000000066
:102a70000000000000000000000000000000000056
:102a80000000000000000000000000000000000046
:10bff0000000000020b5000000b000001fb50000e8
:020000040000fa
:10c0000086aa020000000000454d00002d36000009
:10c010003543000030320000205b00003135000065
:10c020002e300000375d00000d0a00000000000007
:10c030000021ef00100220001008880005002100f8
:10c0400004f02f00f6ff2000010020000200220073
:10c050008102980092029800010020000200230053
:10c06000a1029800b2029800010020000200240002
:10c07000c1029800d20298000100200002002500b1
:10c08000e1029800f2029800010020000200260060
:10c09000810a9800920a98000100200002002700ff
:10c0a000a10a9800b20a980011002000020028009e
:10c0b000c10a9800d20a980011002000020029004d
:10c0c000e10a9800f20a98001100200002002a00fc
:10c0d00081129800921298001100200002002b009b
:10c0e000a1129800b21298001100200002002c004a
:10c0f000c1129800d21298000120200002002900ed
:10c10000e1129800f21298000120200002002a009b
:10c11000811a9800921a98000120200002002b003a
:10c12000a11a9800b21a98000120200002002c00e9
:10c13000c11a9800d21a98000120200002002d0098
:10c14000e11a9800f21a9800c2ff2f00cc10de000e
:10c15000c208dd0065807800900188008180e800d9
:10c16000e580780006006100810040003200e200b6
:10c170004220ae0001f0a0009181fb000201e80026
:10c18000cc10de00c208dd006580780090018800d8
:10c190008180e800e58078000600610081004000b1
:10c1a0003200e2004220ae0001f0a0001184fb004a
:10c1b0000880fd00030474000d30a1000d20a000d4
:10c1c000091020000005eb008005eb000006eb00e5
:10c1d0008003eb000007eb006030ef00b5000700c4
:10c1e0006030b4006010e200feff3c00fbff37004f
:10c1f00065f0a9000880fd00cc48de000488a50099
:10c200000b003a00c208dd0065807800a0018800bc
:10c210008180e800e58078000680640081004000ad
:10c220003400e2004220ae0001f0a000884878000f
:10c230008944e9000880fd00cc48de000488a500a0
:10c240000b003a00c208dd0065807800a00188007c
:10c250008180e800e580780006806400810040006d
:10c260003400e2004220ae0001f0a00088487800cf
:10c270008944e900030320000700a7000300a00091
:10c280000710a7000310a0000730a7000370a0004c
:10c290000720a7000360a0008dc17100cc48de001c
:10c2a0000488a5000b003a00c208dd006580780014
:10c2b000a00188008180e800e580780006806400a5
:10c2c000810040003400e2004220ae0001f0a000f6
:10c2d000834878008944e9000d20a0000d30a100ba
:10c2e000a2ff2f00cc10de00c208dd0065807800c0
:10c2f000900188008180e800e580780006006100f8
:10c30000810040003200e2004220ae0001f0a000b7
:10c310009181fb000201e800cc10de00c208dd00c4
:10c3200065807800900188008180e800e5807800d1
:10c3300006006100810040003200e2004220ae00b1
:10c3400001f0a0001184fb000880fd0003047400cc
:10c35000700005000880fd00cc48de000488a500c0
:10c360000b003a00c208dd0065807800a00188005b
:10c370008180e800e580780006806400810040004c
:10c380003400e2004220ae0001f0a00088487800ae
:10c390008944e9000880fd00cc48de000488a5003f
:10c3a0000b003a00c208dd0065807800a00188001b
:10c3b0008180e800e580780006806400810040000c
:10c3c0003400e2004220ae0001f0a000884878006e
:10c3d0008944e900030220000700a7000300a00031
:10c3e0000710a7000310a0000730a7000370a000eb
:10c3f0000720a7000360a0008dc17100cc48de00bb
:10c400000488a5000b003a00c208dd0065807800b2
:10c41000a00188008180e800e58078000680640043
:10c42000810040003400e2004220ae0001f0a00094
:10c43000834878008944e9000d20a0000d30a10058
:10c44000e2ff2f00cc10de00c208dd00658078001e
:10c45000900188008180e800e58078000600610096
:10c46000810040003200e2004220ae0001f0a00056
:10c470009181fb000201e800cc10de00c208dd0063
:10c4800065807800900188008180e800e580780070
:10c4900006006100810040003200e2004220ae0050
:10c4a00001f0a0001184fb000880fd00030474006b
:10c4b000700005006490bf0000f0a7004cff37003b
:10c4c0000d20a7000000eb006210b600a1ff3a00ab
:10c4d000cc40de00c208dd00658078009001880055
:10c4e0008180e800e580780006006400810040005b
:10c4f0003200e2004220ae0001f0a0009181fb007a
:10c500000804e80003060100390937004815370020
:10c510004b2137004721370003213700eb14370048
:10c52000d604370078163700eb153700d3143700e0
:10c53000cc0437003f213700bf2037003b143700c1
:10c540004b04370028053700fd08370093153700e6
:10c55000fd14370037213700892037006f15370069
:10c56000f304370091163700a809370090143700fc
:10c570000d0f37002f2137004420370059143700a2
:10c58000770437004205370005103700be03370037
:10c59000282137002721370076083700db023700d3
:10c5a00027183700aa1637001816370095023700eb
:10c5b0001c1837001f21370007083700a502370075
:10c5c000991737005c053700af083700e9033700db
:10c5d000ed02370017213700880837008a0337003b
:10c5e00045183700c31637009d1b3700530337002b
:10c5f000680c37000f213700280837001c0337006c
:10c60000c6173700760537004d193700cf0d3700b4
:10c61000082137000721370006213700720d370047
:10c62000a4133700dc1637009b1537005a0d37006e
:10c630009a133700ff203700480f3700c20c37002d
:10c640001913370090053700420937001a0e3700da
:10c65000840d3700f7203700f6203700f60d37003d
:10c66000c1133700f51637006c093700170d370076
:10c67000c3153700ef203700ee203700e00c3700fd
:10c6800045133700aa05370062193700db01370070
:10c69000e8203700e7203700b51f3700e4003700f7
:10c6a000ca1837000e173700c51537009600370037
:10c6b000bf183700df203700460f3700aa003700c9
:10c6c0003c183700c4053700390937000a02370023
:10c6d000fa003700d7203700c21f3700a301370008
:10c6e000e818370027173700611b3700680137004b
:10c6f000f2153700cf2037006f0f37002d013700bc
:10c7000069183700de053700a4083700491d3700d7
:10c71000c8203700c7203700ff1e3700291d37000b
:10c72000691e3700541b3700810c37009307370010
:10c73000b0203700bf2037009c1e3700961c370002
:10c74000061e3700f805370047073700c51d3700bc
:10c750008d1d3700b72037000b1f37006d1d3700c8
:10c76000751e37006d1b3700aa203700e51c370007
:10c77000a6203700af203700201f3700b11c37003c
:10c780004a1f37001206370074123700c4103700f2
:10c79000be113700a720370084123700671037001a
:10c7a000ce113700861b3700b21f37004f103700fd
:10c7b000aa1f37009f20370007123700b70f370036
:10c7c000511137002c0637003e0737000f11370094
:10c7d000791037009720370093123700eb1037009d
:10c7e000dd1137009f1b37000e0937000c10370092
:10c7f0007a2037008f20370025123700d50f3700f9
:10c800006f11370046063700320b3700080a370031
:10c810008820370087203700420b3700ab093700ec
:10c82000e20b3700b81b3700c60e370093093700fc
:10c83000390c37007d203700f80a3700fb08370035
:10c84000570b37006006370026083700530a3700b9
:10c85000bd09370077203700762037002f0a3700d0
:10c86000ff0b3700d11b3700ea08370050093700ab
:10c8700033153700b71d37006e2037001909370010
:10c88000830b37007a063700b10a37003c1a3700ad
:10c890006820370067203700c10a3700cb193700fe
:10c8a000470e3700ea1b3700a00e3700a9193700e2
:10c8b0005b1337005f203700770a3700f318370023
:10c8c000bc0d370094063700150737009b1a370058
:10c8d000e719370057203700562037006d1a370008
:10c8e000640e3700031c3700df1a37005c1937006d
:10c8f0005f1537004f2037004e2037001b193700d7
:10c90000e80d3700ae063700080178000804e8009b
:10c91000cc10de00c208dd00658078009001880040
:10c920008180e800e5807800060061008100400019
:10c930003200e2004220ae0001f0a0009181fb0035
:10c940000700a30003454d000d30a7000a40fd007d
:10c95000604575001002800007006800f000b2001a
:10c960008703680020000500cc40de00c208dd001f
:10c9700065807800900188008180e800e58078007b
:10c9800006006400810040003200e2004220ae0058
:10c9900001f0a0009181fb000804e800cc40de001b
:10c9a000c208dd0065807800900188008180e80081
:10c9b000e580780006006400810040003200e2005b
:10c9c0004220ae0001f0a0001181fb000804e80045
:10c9d0000280fd0003017100cc10de00c208dd0002
:10c9e00065807800900188008180e800e58078000b
:10c9f00006006100810040003200e2004220ae00eb
:10ca000001f0a0009181fb000700a30003454d0049
:10ca10000d30a7000a40fd0060457500100280003f
:10ca200007006800f000b2008703680040000500be
:10ca3000cc40de00c208dd006580780090018800ef
:10ca40008180e800e58078000600640081004000f5
:10ca50003200e2004220ae0001f0a0001181fb0094
:10ca60000804e800cc10de00c208dd006580780014
:10ca7000900188008180e800e58078000600610070
:10ca8000810040003200e2004220ae0001f0a00030
:10ca90009181fb000700a30003454d000d30a70066
:10caa0000a40fd0060457500100280000700680024
:10cab000f000b2008703680030000500cc40de00c3
:10cac000c208dd0065807800900188008180e80060
:10cad000e580780006006400810040003200e2003a
:10cae0004220ae0001f0a0001181fb000804e80024
:10caf000cc10de00c208dd0065807800900188005f
:10cb00008180e800e5807800060061008100400037
:10cb10003200e2004220ae0001f0a0009181fb0053
:10cb20000201e800cc10de00c208dd00658078005c
:10cb3000900188008180e800e580780006006100af
:10cb4000810040003200e2004220ae0001f0a0006f
:10cb50001181fb000280fd0003017100cc10de009a
:10cb6000c208dd0065807800900188008180e800bf
:10cb7000e580780006006100810040003200e2009c
:10cb80004220ae0001f0a0009181fb000700a3004d
:10cb900003454d000d30a7000a40fd0060457500bb
:10cba0001002800007006800f000b20087036800f0
:10cbb00050000500cc40de00c208dd006580780032
:10cbc000900188008180e800e5807800060064001c
:10cbd000810040003200e2004220ae0001f0a000df
:10cbe0009181fb000804e800cc40de00c208dd00b3
:10cbf00065807800900188008180e800e5807800f9
:10cc000006006400810040003200e2004220ae00d5
:10cc100001f0a0001181fb000804e8000280fd0083
:10cc2000830171000381450083016900c819de009a
:10cc30004220af006030ec00cc10de00c208dd0006
:10cc400065807800900188008180e800e5807800a8
:10cc500006006100810040003200e2004220ae0088
:10cc600001f0a0009181fb000700a30003454d00e7
:10cc70000d30a7000a40fd006045750010028000dd
:10cc800007006800f000b20087036800400005005c
:10cc9000cc40de00c208dd0065807800900188008d
:10cca0008180e800e5807800060064008100400093
:10ccb0003200e2004220ae0001f0a0009181fb00b2
:10ccc0000804e800cc40de00c208dd006580780082
:10ccd000900188008180e800e5807800060064000b
:10cce000810040003200e2004220ae0001f0a000ce
:10ccf0001181fb000804e8000280fd00830171003f
:10cd00000301460083016900c819de004220af001c
:10cd10006030ec00cc10de00c208dd0065807800d9
:10cd2000900188008180e800e580780006006100bd
:10cd3000810040003200e2004220ae0001f0a0007d
:10cd40009181fb000700a30003454d000d30a700b3
:10cd50000a40fd0060457500100280000700680071
:10cd6000f000b2008703680040000500cc40de0000
:10cd7000c208dd0065807800900188008180e800ad
:10cd8000e580780006006400810040003200e20087
:10cd90004220ae0001f0a0001181fb000804e80071
:10cda00002c14500cc10de00c208dd0065807800bd
:10cdb000900188008180e800e5807800060061002d
:10cdc000810040003200e2004220ae0001f0a000ed
:10cdd0009181fb000700a30003454d000d30a70023
:10cde0000a40fd00604575001002800007006800e1
:10cdf000f000b2008703680040000500cc40de0070
:10ce0000c208dd0065807800900188008180e8001c
:10ce1000e580780006006400810040003200e200f6
:10ce20004220ae0001f0a0001181fb000804e800e0
:10ce300002c14500cc10de00c208dd00658078002c
:10ce4000900188008180e800e5807800060061009c
:10ce5000810040003200e2004220ae0001f0a0005c
:10ce60009181fb000241e800cc10de00c208dd0029
:10ce700065807800900188008180e800e580780076
:10ce800006006100810040003200e2004220ae0056
:10ce900001f0a0001181fb000280fd000301710080
:10cea000cc10de00c208dd006580780090018800ab
:10ceb0008180e800e5807800060061008100400084
:10cec0003200e2004220ae0001f0a0009181fb00a0
:10ced0000700a30003454d000d30a7000a40fd00e8
:10cee000604575001002800007006800f000b20085
:10cef0008703680060000500cc40de00c208dd004a
:10cf000065807800900188008180e800e5807800e5
:10cf100006006400810040003200e2004220ae00c2
:10cf200001f0a0001181fb000804e800cc10de0035
:10cf3000c208dd0065807800900188008180e800eb
:10cf4000e580780006006100810040003200e200c8
:10cf50004220ae0001f0a0009181fb000201e80038
:10cf6000cc10de00c208dd006580780090018800ea
:10cf70008180e800e58078000600610081004000c3
:10cf80003200e2004220ae0001f0a0001181fb005f
:10cf90000280fd00830171000301460083016900e6
:10cfa000c819de004220af006030ec00cc10de007b
:10cfb000c208dd0065807800900188008180e8006b
:10cfc000e580780006006100810040003200e20048
:10cfd0004220ae0001f0a0009181fb000700a300f9
:10cfe00003454d000d30a7000a40fd006045750067
:10cff0001002800007006800f000b200870368009c
:10d0000050000500080178000804e800cc10de009c
:10d01000c208dd0065807800900188008180e8000a
:10d02000e580780006006100810040003200e200e7
:10d030004220ae0001f0a0009181fb000345650095
:10d040001002800007006800a000b200870368009b
:10d0500020000500cc40de00c208dd0065807800bd
:10d06000900188008180e800e58078000600640077
:10d07000810040003200e2004220ae0001f0a0003a
:10d080009181fb000804e800cc40de00c208dd000e
:10d0900065807800900188008180e800e580780054
:10d0a00006006400810040003200e2004220ae0031
:10d0b00001f0a0001181fb000804e8000280fd00df
:10d0c00003017100cc10de00c208dd00658078002d
:10d0d000900188008180e800e5807800060061000a
:10d0e000810040003200e2004220ae0001f0a000ca
:10d0f0009181fb0003456500100280000700680075
:10d10000a000b2008703680040000500cc40de00ac
:10d11000c208dd0065807800900188008180e80009
:10d12000e580780006006400810040003200e200e3
:10d130004220ae0001f0a0001181fb000804e800cd
:10d14000cc10de00c208dd00658078009001880008
:10d150008180e800e58078000600610081004000e1
:10d160003200e2004220ae0001f0a0009181fb00fd
:10d17000034565001002800007006800a000b200af
:10d180008703680030000500cc40de00c208dd00e7
:10d1900065807800900188008180e800e580780053
:10d1a00006006400810040003200e2004220ae0030
:10d1b00001f0a0001181fb000804e800cc10de00a3
:10d1c000c208dd0065807800900188008180e80059
:10d1d000e580780006006100810040003200e20036
:10d1e0004220ae0001f0a0009181fb000201e800a6
:10d1f000cc10de00c208dd00658078009001880058
:10d200008180e800e5807800060061008100400030
:10d210003200e2004220ae0001f0a0001181fb00cc
:10d220000280fd0003017100cc10de00c208dd00a9
:10d2300065807800900188008180e800e5807800b2
:10d2400006006100810040003200e2004220ae0092
:10d2500001f0a0009181fb000345650010028000f1
:10d2600007006800a000b2008703680050000500b6
:10d27000cc40de00c208dd006580780090018800a7
:10d280008180e800e58078000600640081004000ad
:10d290003200e2004220ae0001f0a0009181fb00cc
:10d2a0000804e800cc40de00c208dd00658078009c
:10d2b000900188008180e800e58078000600640025
:10d2c000810040003200e2004220ae0001f0a000e8
:10d2d0001181fb000804e8000280fd008301710059
:10d2e0000381450083016900c819de004220af00b8
:10d2f0006030ec00cc10de00c208dd0065807800f4
:10d30000900188008180e800e580780006006100d7
:10d31000810040003200e2004220ae0001f0a00097
:10d320009181fb0003456500100280000700680042
:10d33000a000b2008703680040000500cc40de007a
:10d34000c208dd0065807800900188008180e800d7
:10d35000e580780006006400810040003200e200b1
:10d360004220ae0001f0a0009181fb000804e8001b
:10d37000cc40de00c208dd006580780090018800a6
:10d380008180e800e58078000600640081004000ac
:10d390003200e2004220ae0001f0a0001181fb004b
:10d3a0000804e8000280fd008301710003014600cb
:10d3b00083016900c819de004220af006030ec0034
:10d3c000cc10de00c208dd00658078009001880086
:10d3d0008180e800e580780006006100810040005f
:10d3e0003200e2004220ae0001f0a0009181fb007b
:10d3f000034565001002800007006800a000b2002d
:10d400008703680040000500cc40de00c208dd0054
:10d4100065807800900188008180e800e5807800d0
:10d4200006006400810040003200e2004220ae00ad
:10d4300001f0a0001181fb000804e80002c14500d2
:10d44000cc10de00c208dd00658078009001880005
:10d450008180e800e58078000600610081004000de
:10d460003200e2004220ae0001f0a0009181fb00fa
:10d47000034565001002800007006800a000b200ac
:10d480008703680040000500cc40de00c208dd00d4
:10d4900065807800900188008180e800e580780050
:10d4a00006006400810040003200e2004220ae002d
:10d4b00001f0a0001181fb000804e80002c1450052
:10d4c000cc10de00c208dd00658078009001880085
:10d4d0008180e800e580780006006100810040005e
:10d4e0003200e2004220ae0001f0a0009181fb007a
:10d4f0000241e800cc10de00c208dd006580780043
:10d50000900188008180e800e580780006006100d5
:10d51000810040003200e2004220ae0001f0a00095
:10d520001181fb000280fd0003017100cc10de00c0
:10d53000c208dd0065807800900188008180e800e5
:10d54000e580780006006100810040003200e200c2
:10d550004220ae0001f0a0009181fb000345650070
:10d560001002800007006800a000b2008703680076
:10d5700060000500cc40de00c208dd006580780058
:10d58000900188008180e800e58078000600640052
:10d59000810040003200e2004220ae0001f0a00015
:10d5a0001181fb000804e800cc10de00c208dd0099
:10d5b00065807800900188008180e800e58078002f
:10d5c00006006100810040003200e2004220ae000f
:10d5d00001f0a0009181fb000201e800cc10de0008
:10d5e000c208dd0065807800900188008180e80035
:10d5f000e580780006006100810040003200e20012
:10d600004220ae0001f0a0001181fb000280fd006d
:10d61000830171000301460083016900c819de001f
:10d620004220af006030ec00cc10de00c208dd000c
:10d6300065807800900188008180e800e5807800ae
:10d6400006006100810040003200e2004220ae008e
:10d6500001f0a0009181fb000345650010028000ed
:10d6600007006800a000b2008703680050000500b2
:10d67000cc40de00c208dd006580780090018800a3
:10d680008180e800e58078000600640081004000a9
:10d690003200e2004220ae0001f0a0009181fb00c8
:10d6a0000804e800cc40de00c208dd006580780098
:10d6b000900188008180e800e58078000600640021
:10d6c000810040003200e2004220ae0001f0a000e4
:10d6d0001181fb000804e8000280fd0003017100d5
:10d6e000cc10de00c208dd00658078009001880063
:10d6f0008180e800e580780006006100810040003c
:10d700003200e2004220ae0001f0a0009181fb0057
:10d710008341d0001002800007006800b000b20012
:10d7200087036800cc10de000488a5000b003a00d7
:10d73000c208dd0065807800a00188008180e800d3
:10d74000e580780006006100810040003400e200be
:10d750004220ae0001f0a000834878006000050080
:10d76000cc40de00c208dd006580780090018800b2
:10d770008180e800e58078000600640081004000b8
:10d780003200e2004220ae0001f0a0009181fb00d7
:10d790000804e800cc40de00c208dd0065807800a7
:10d7a000900188008180e800e58078000600640030
:10d7b000810040003200e2004220ae0001f0a000f3
:10d7c0001181fb000804e8000280fd008301710064
:10d7d0000381450083016900c819de004220af00c3
:10d7e0006030ec00cc10de00c208dd0065807800ff
:10d7f000900188008180e800e580780006006100e3
:10d80000810040003200e2004220ae0001f0a000a2
:10d810009181fb008341d000100280000700680066
:10d82000b000b20087036800cc10de000488a500b9
:10d830000b003a00c208dd0065807800a001880076
:10d840008180e800e58078000600610081004000ea
:10d850003400e2004220ae0001f0a00083487800ce
:10d86000600005000a45d000100280000700680033
:10d87000b000b2008703680020000500cc40de0045
:10d88000c208dd0065807800900188008180e80092
:10d89000e580780006006400810040003200e2006c
:10d8a0004220ae0001f0a0001181fb000804e80056
:10d8b000cc10de00c208dd00658078009001880091
:10d8c0008180e800e580780006006100810040006a
:10d8d0003200e2004220ae0001f0a0009181fb0086
:10d8e0008341d0001002800007006800b000b20041
:10d8f00087036800cc10de000488a5000b003a0006
:10d90000c208dd0065807800a00188008180e80001
:10d91000e580780006006100810040003400e200ec
:10d920004220ae0001f0a0008348780050000500be
:10d93000cc40de00c208dd006580780090018800e0
:10d940008180e800e58078000600640081004000e6
:10d950003200e2004220ae0001f0a0001181fb0085
:10d960000804e80002c14500cc10de00c208dd005a
:10d9700065807800900188008180e800e58078006b
:10d9800006006100810040003200e2004220ae004b
:10d9900001f0a0009181fb008341d00010028000c3
:10d9a00007006800b000b20087036800cc10de00fa
:10d9b0000488a5000b003a00c208dd0065807800ed
:10d9c000a00188008180e800e58078000600610001
:10d9d000810040003400e2004220ae0001f0a000cf
:10d9e0008348780060000500cc40de00c208dd00fe
:10d9f00065807800900188008180e800e5807800eb
:10da000006006400810040003200e2004220ae00c7
:10da100001f0a0001181fb000804e800cc40de000a
:10da2000c208dd0065807800900188008180e800f0
:10da3000e580780006006400810040003200e200ca
:10da40004220ae0001f0a0009101fb000804e800b4
:10da500083014400cc10de00c208dd006580780040
:10da6000900188008180e800e58078000600610070
:10da7000810040003200e2004220ae0001f0a00030
:10da80001180fb000000a6000304780020000500c0
:10da9000cc40de00c208dd0065807800900188007f
:10daa0008180e800e5807800060064008100400085
:10dab0003200e2004220ae0001f0a0001181fb0024
:10dac0000804e800cc40de00c208dd006580780074
:10dad000900188008180e800e580780006006400fd
:10dae000810040003200e2004220ae0001f0a000c0
:10daf0009101fb000804e80083014400cc10de0023
:10db0000c208dd0065807800900188008180e8000f
:10db1000e580780006006100810040003200e200ec
:10db20004220ae0001f0a0001180fb000010a60012
:10db30000304780020000500cc40de00c208dd00b0
:10db400065807800900188008180e800e580780099
:10db500006006400810040003200e2004220ae0076
:10db600001f0a0001181fb000804e800cc40de00b9
:10db7000c208dd0065807800900188008180e8009f
:10db8000e580780006006400810040003200e20079
:10db90004220ae0001f0a0009101fb000804e80063
:10dba00083014400cc10de00c208dd0065807800ef
:10dbb000900188008180e800e5807800060061001f
:10dbc000810040003200e2004220ae0001f0a000df
:10dbd0001180fb000020a60003047800200005004f
:10dbe000cc40de00c208dd0065807800900188002e
:10dbf0008180e800e5807800060064008100400034
:10dc00003200e2004220ae0001f0a0001181fb00d2
:10dc10000804e800cc40de00c208dd006580780022
:10dc2000900188008180e800e580780006006400ab
:10dc3000810040003200e2004220ae0001f0a0006e
:10dc40009101fb000804e80083014400cc10de00d1
:10dc5000c208dd0065807800900188008180e800be
:10dc6000e580780006006100810040003200e2009b
:10dc70004220ae0001f0a0001180fb000030a600a1
:10dc80000304780020000500cc40de00c208dd005f
:10dc900065807800900188008180e800e580780048
:10dca00006006400810040003200e2004220ae0025
:10dcb00001f0a0001181fb000804e800cc40de0068
:10dcc000c208dd0065807800900188008180e8004e
:10dcd000e580780006006400810040003200e20028
:10dce0004220ae0001f0a0009101fb000804e80012
:10dcf00083014400cc10de00c208dd00658078009e
:10dd0000900188008180e800e580780006006100cd
:10dd1000810040003200e2004220ae0001f0a0008d
:10dd20001180fb000040a6000304780020000500dd
:10dd3000cc40de00c208dd006580780090018800dc
:10dd40008180e800e58078000600640081004000e2
:10dd50003200e2004220ae0001f0a0001181fb0081
:10dd60000804e800cc40de00c208dd0065807800d1
:10dd7000900188008180e800e5807800060064005a
:10dd8000810040003200e2004220ae0001f0a0001d
:10dd90009101fb000804e80083014400cc10de0080
:10dda000c208dd0065807800900188008180e8006d
:10ddb000e580780006006100810040003200e2004a
:10ddc0004220ae0001f0a0001180fb000050a60030
:10ddd0000304780020000500cc40de00c208dd000e
:10dde00065807800900188008180e800e5807800f7
:10ddf00006006400810040003200e2004220ae00d4
:10de000001f0a0001181fb000804e800cc40de0016
:10de1000c208dd0065807800900188008180e800fc
:10de2000e580780006006400810040003200e200d6
:10de30004220ae0001f0a0009101fb000804e800c0
:10de400083014400cc10de00c208dd00658078004c
:10de5000900188008180e800e5807800060061007c
:10de6000810040003200e2004220ae0001f0a0003c
:10de70001180fb000060a60003047800200005006c
:10de8000cc40de00c208dd0065807800900188008b
:10de90008180e800e5807800060064008100400091
:10dea0003200e2004220ae0001f0a0001181fb0030
:10deb0000804e800cc40de00c208dd006580780080
:10dec000900188008180e800e58078000600640009
:10ded000810040003200e2004220ae0001f0a000cc
:10dee0009101fb000804e80083014400cc10de002f
:10def000c208dd0065807800900188008180e8001c
:10df0000e580780006006100810040003200e200f8
:10df10004220ae0001f0a0001180fb000070a600be
:10df20000304780020000500cc40de00c208dd00bc
:10df300065807800900188008180e800e5807800a5
:10df400006006400810040003200e2004220ae0082
:10df500001f0a0001181fb000804e800cc40de00c5
:10df6000c208dd0065807800900188008180e800ab
:10df7000e580780006006400810040003200e20085
:10df80004220ae0001f0a0009101fb000804e8006f
:10df900083014400cc10de00c208dd0065807800fb
:10dfa000900188008180e800e5807800060061002b
:10dfb000810040003200e2004220ae0001f0a000eb
:10dfc0001180fb000000a70003047800200005007a
:10dfd000cc40de00c208dd0065807800900188003a
:10dfe0008180e800e5807800060064008100400040
:10dff0003200e2004220ae0001f0a0001181fb00df
:10e000000804e800cc40de00c208dd00658078002e
:10e01000900188008180e800e580780006006400b7
:10e02000810040003200e2004220ae0001f0a0007a
:10e030009101fb000804e80083014400cc10de00dd
:10e04000c208dd0065807800900188008180e800ca
:10e05000e580780006006100810040003200e200a7
:10e060004220ae0001f0a0001180fb000010a700cc
:10e070000304780020000500cc40de00c208dd006b
:10e0800065807800900188008180e800e580780054
:10e0900006006400810040003200e2004220ae0031
:10e0a00001f0a0001181fb000804e800cc40de0074
:10e0b000c208dd0065807800900188008180e8005a
:10e0c000e580780006006400810040003200e20034
:10e0d0004220ae0001f0a0009101fb000804e8001e
:10e0e00083014400cc10de00c208dd0065807800aa
:10e0f000900188008180e800e580780006006100da
:10e10000810040003200e2004220ae0001f0a00099
:10e110001180fb000020a700030478002000050008
:10e12000cc40de00c208dd006580780090018800e8
:10e130008180e800e58078000600640081004000ee
:10e140003200e2004220ae0001f0a0001181fb008d
:10e150000804e800cc40de00c208dd0065807800dd
:10e16000900188008180e800e58078000600640066
:10e17000810040003200e2004220ae0001f0a00029
:10e180009101fb000804e80083014400cc10de008c
:10e19000c208dd0065807800900188008180e80079
:10e1a000e580780006006100810040003200e20056
:10e1b0004220ae0001f0a0001180fb000030a7005b
:10e1c0000304780020000500cc40de00c208dd001a
:10e1d00065807800900188008180e800e580780003
:10e1e00006006400810040003200e2004220ae00e0
:10e1f00001f0a0001181fb000804e800cc40de0023
:10e20000c208dd0065807800900188008180e80008
:10e21000e580780006006400810040003200e200e2
:10e220004220ae0001f0a0009101fb000804e800cc
:10e2300083014400cc10de00c208dd006580780058
:10e24000900188008180e800e58078000600610088
:10e25000810040003200e2004220ae0001f0a00048
:10e260001180fb000040a700030478002000050097
:10e27000cc40de00c208dd00658078009001880097
:10e280008180e800e580780006006400810040009d
:10e290003200e2004220ae0001f0a0001181fb003c
:10e2a0000804e800cc40de00c208dd00658078008c
:10e2b000900188008180e800e58078000600640015
:10e2c000810040003200e2004220ae0001f0a000d8
:10e2d0009101fb000804e80083014400cc10de003b
:10e2e000c208dd0065807800900188008180e80028
:10e2f000e580780006006100810040003200e20005
:10e300004220ae0001f0a0001180fb000050a700e9
:10e310000304780020000500cc40de00c208dd00c8
:10e3200065807800900188008180e800e5807800b1
:10e3300006006400810040003200e2004220ae008e
:10e3400001f0a0001181fb000804e800cc40de00d1
:10e35000c208dd0065807800900188008180e800b7
:10e36000e580780006006400810040003200e20091
:10e370004220ae0001f0a0009101fb000804e8007b
:10e3800083014400cc10de00c208dd006580780007
:10e39000900188008180e800e58078000600610037
:10e3a000810040003200e2004220ae0001f0a000f7
:10e3b0001180fb000060a700030478002000050026
:10e3c000cc40de00c208dd00658078009001880046
:10e3d0008180e800e580780006006400810040004c
:10e3e0003200e2004220ae0001f0a0001181fb00eb
:10e3f0000804e800cc40de00c208dd00658078003b
:10e40000900188008180e800e580780006006400c3
:10e41000810040003200e2004220ae0001f0a00086
:10e420009101fb000804e80083014400cc10de00e9
:10e43000c208dd0065807800900188008180e800d6
:10e44000e580780006006100810040003200e200b3
:10e450004220ae0001f0a0001180fb000070a70078
:10e460000304780020000500cc40de00c208dd0077
:10e4700065807800900188008180e800e580780060
:10e4800006006400810040003200e2004220ae003d
:10e4900001f0a0001101fb000804e80002014400a3
:10e4a0000700a3000600310088016900020478001b
:10e4b0006030ec00c819de004220ae006030ec0095
:10e4c00020000500cc40de00c208dd006580780039
:10e4d000900188008180e800e580780006006400f3
:10e4e000810040003200e2004220ae0001f0a000b6
:10e4f0001101fb000804e800020144000700a3002a
:10e500000600390088016900020478006030ec00e0
:10e51000c819de004220ae006030ec00200005008b
:10e52000cc40de00c208dd006580780090018800e4
:10e530008180e800e58078000600640081004000ea
:10e540003200e2004220ae0001f0a0001101fb0009
:10e550000804e800020144000710a3000600390087
:10e5600088016900020478006030ec00c819de0000
:10e570004220ae006030ec00200005000801780069
:10e580000804e800cc10de00c208dd0065807800d9
:10e59000900188008180e800e58078000600610035
:10e5a000810040003200e2004220ae0001f0a000f5
:10e5b0009181fb001740b200034065004220af008c
:10e5c0000710a0000370a7000730a0000360a70099
:10e5d0000720a00030000500cc40de00c208dd00ae
:10e5e00065807800900188008180e800e5807800ef
:10e5f00006006400810040003200e2004220ae00cc
:10e6000001f0a0009181fb000804e800cc40de008e
:10e61000c208dd0065807800900188008180e800f4
:10e62000e580780006006400810040003200e200ce
:10e630004220ae0001f0a0001181fb000804e800b8
:10e640000280fd0003017100cc10de00c208dd0075
:10e6500065807800900188008180e800e58078007e
:10e6600006006100810040003200e2004220ae005e
:10e6700001f0a0009181fb001740b200034065004b
:10e680004220af000710a0000370a7000730a000d1
:10e690000360a7000720a00040000500cc40de007a
:10e6a000c208dd0065807800900188008180e80064
:10e6b000e580780006006400810040003200e2003e
:10e6c0004220ae0001f0a0009181fb000804e800a8
:10e6d000cc40de00c208dd00658078009001880033
:10e6e0008180e800e5807800060064008100400039
:10e6f0003200e2004220ae0001f0a0001181fb00d8
:10e700000804e8000280fd008301710003814500d8
:10e7100083016900c819de004220af006030ec00c0
:10e72000cc10de00c208dd00658078009001880012
:10e730008180e800e58078000600610081004000eb
:10e740003200e2004220ae0001f0a0009181fb0007
:10e750001740b200034065004220af000710a00040
:10e760000370a7000730a0000360a7000720a000e7
:10e7700040000500cc40de00c208dd006580780066
:10e78000900188008180e800e58078000600640040
:10e79000810040003200e2004220ae0001f0a00003
:10e7a0001181fb000804e800cc10de00c208dd0087
:10e7b00065807800900188008180e800e58078001d
:10e7c00006006100810040003200e2004220ae00fd
:10e7d00001f0a0009181fb001740b20003406500ea
:10e7e0004220af000710a0000370a7000730a00070
:10e7f0000360a7000720a00030000500cc40de0029
:10e80000c208dd0065807800900188008180e80002
:10e81000e580780006006400810040003200e200dc
:10e820004220ae0001f0a0001181fb000804e800c6
:10e8300002c14500cc10de00c208dd006580780012
:10e84000900188008180e800e58078000600610082
:10e85000810040003200e2004220ae0001f0a00042
:10e860009181fb001740b200034065004220af00d9
:10e870000710a0000370a7000730a0000360a700e6
:10e880000720a00030000500cc40de00c208dd00fb
:10e8900065807800900188008180e800e58078003c
:10e8a00006006400810040003200e2004220ae0019
:10e8b00001f0a0001101fb000804e800020144007f
:10e8c0000730a300060039008801690002047800bf
:10e8d0006030ec00c819de004220ae006030ec0071
:10e8e00020000500cc40de00c208dd006580780015
:10e8f000900188008180e800e580780006006400cf
:10e90000810040003200e2004220ae0001f0a00091
:10e910001101fb000804e800020144000710a300f5
:10e920000600310088016900020478006030ec00c4
:10e93000c819de004220ae006030ec002000050067
:10e94000cc40de00c208dd006580780090018800c0
:10e950008180e800e58078000600640081004000c6
:10e960003200e2004220ae0001f0a0001101fb00e5
:10e970000804e800020144000730a300060031004b
:10e9800088016900020478006030ec00c819de00dc
:10e990004220ae006030ec0020000500cc40de00dc
:10e9a000c208dd0065807800900188008180e80061
:10e9b000e580780006006400810040003200e2003b
:10e9c0004220ae0001f0a0001101fb000804e800a5
:10e9d0000201440088016900020478006030ec0004
:10e9e000c819de004220ae006030ec0020000500b7
:10e9f000080178000804e8000880fd00cc48de002b
:10ea00000488a5000b003a00c208dd00658078008c
:10ea1000a00188008180e800e5807800068064001d
:10ea2000810040003400e2004220ae0001f0a0006e
:10ea3000884878008944e9000880fd00cc48de0061
:10ea40000488a5000b003a00c208dd00658078004c
:10ea5000a00188008180e800e580780006806400dd
:10ea6000810040003400e2004220ae0001f0a0002e
:10ea7000884878008944e900030320000700a700c4
:10ea80000300a0000710a7000310a0000730a70094
:10ea90000370a0000720a7000360a0008dc17100d3
:10eaa000cc48de000488a5000b003a00c208dd0057
:10eab00065807800a00188008180e800e58078000a
:10eac00006806400810040003400e2004220ae0075
:10ead00001f0a000834878008944e9000d20a000df
:10eae000e2ff2f00cc10de00c208dd006580780058
:10eaf000900188008180e800e580780006006100d0
:10eb0000810040003200e2004220ae0001f0a0008f
:10eb10009181fb000201e800cc10de00c208dd009c
:10eb200065807800900188008180e800e5807800a9
:10eb300006006100810040003200e2004220ae0089
:10eb400001f0a0001184fb000880fd0003047400a4
:10eb500070000500cc40de00c208dd006580780052
:10eb6000900188008180e800e5807800060064005c
:10eb7000810040003200e2004220ae0001f0a0001f
:10eb80001101fb000804e800020144000720a30073
:10eb90000600310088016900020478006030ec0052
:10eba000c819de004220ae006030ec0020000500f5
:10ebb000cc40de00c208dd0065807800900188004e
:10ebc0008180e800e5807800060064008100400054
:10ebd0003200e2004220ae0001f0a0001101fb0073
:10ebe0000804e800020144000720a30006003900e1
:10ebf00088016900020478006030ec00c819de006a
:10ec00004220ae006030ec00200005000704a100a7
:10ec1000200005000d34a100200005000d24a100f6
:10ec2000200005000724a10020000500cc40de00e4
:10ec3000c208dd0065807800900188008180e800ce
:10ec4000e580780006006400810040003200e200a8
:10ec50004220ae0001f0a0009181fb000804e80012
:10ec6000cc40de00c208dd0065807800900188009d
:10ec70008180e800e58078000600640081004000a3
:10ec80003200e2004220ae0001f0a0001181fb0042
:10ec90000804e8000280fd0003017100cc10de00d2
:10eca000c208dd0065807800900188008180e8005e
:10ecb000e580780006006100810040003200e2003b
:10ecc0004220ae0001f0a0009181fb00834155007d
:10ecd0001002800007006800b000b20087036800df
:10ece00040000500cc40de00c208dd0065807800f1
:10ecf000900188008180e800e580780006006400cb
:10ed0000810040003200e2004220ae0001f0a0008d
:10ed10009181fb000804e800cc40de00c208dd0061
:10ed200065807800900188008180e800e5807800a7
:10ed300006006400810040003200e2004220ae0084
:10ed400001f0a0001181fb000804e8000280fd0032
:10ed5000830171000381450083016900c819de0049
:10ed60004220af006030ec00cc10de00c208dd00b5
:10ed700065807800900188008180e800e580780057
:10ed800006006100810040003200e2004220ae0037
:10ed900001f0a0009181fb0083415500100280002a
:10eda00007006800b000b20087036800400005005b
:10edb000cc40de00c208dd0065807800900188004c
:10edc0008180e800e5807800060064008100400052
:10edd0003200e2004220ae0001f0a0009181fb0071
:10ede0000804e800cc40de00c208dd006580780041
:10edf000900188008180e800e580780006006400ca
:10ee0000810040003200e2004220ae0001f0a0008c
:10ee10001181fb000804e8000280fd0083017100fd
:10ee20000301460083016900c819de004220af00db
:10ee30006030ec00cc10de00c208dd006580780098
:10ee4000900188008180e800e5807800060061007c
:10ee5000810040003200e2004220ae0001f0a0003c
:10ee60009181fb008341550010028000070068007b
:10ee7000b000b20087036800400005000801780078
:10ee80000804e800cc10de00c208dd0065807800d0
:10ee9000900188008180e800e5807800060061002c
:10eea000810040003200e2004220ae0001f0a000ec
:10eeb0009181fb008341550010028000070068002b
:10eec000b000b2008703680020000500cc40de00df
:10eed000c208dd0065807800900188008180e8002c
:10eee000e580780006006400810040003200e20006
:10eef0004220ae0001f0a0001181fb000804e800f0
:10ef0000cc10de00c208dd0065807800900188002a
:10ef10008180e800e5807800060061008100400003
:10ef20003200e2004220ae0001f0a0009181fb001f
:10ef3000834155001002800007006800b000b20055
:10ef40008703680030000500cc40de00c208dd0009
:10ef500065807800900188008180e800e580780075
:10ef600006006400810040003200e2004220ae0052
:10ef700001f0a0001181fb000804e800cc10de00c5
:10ef8000c208dd0065807800900188008180e8007b
:10ef9000e580780006006100810040003200e20058
:10efa0004220ae0001f0a0009181fb000201e800c8
:10efb000cc10de00c208dd0065807800900188007a
:10efc0008180e800e5807800060061008100400053
:10efd0003200e2004220ae0001f0a0001181fb00ef
:10efe0000280fd0003017100cc10de00c208dd00cc
:10eff00065807800900188008180e800e5807800d5
:10f0000006006100810040003200e2004220ae00b4
:10f0100001f0a0009181fb008341550010028000a7
:10f0200007006800b000b2008703680050000500c8
:10f03000cc40de00c208dd006580780090018800c9
:10f040008180e800e58078000600640081004000cf
:10f050003200e2004220ae0001f0a0001181fb006e
:10f060000804e80002c14500cc10de00c208dd0043
:10f0700065807800900188008180e800e580780054
:10f0800006006100810040003200e2004220ae0034
:10f0900001f0a0009181fb000241e800cc10de00ed
:10f0a000c208dd0065807800900188008180e8005a
:10f0b000e580780006006100810040003200e20037
:10f0c0004220ae0001f0a0001181fb000280fd0093
:10f0d00003017100cc10de00c208dd0065807800fd
:10f0e000900188008180e800e580780006006100da
:10f0f000810040003200e2004220ae0001f0a0009a
:10f100009181fb00834155001002800007006800d8
:10f11000b000b2008703680060000500cc40de004c
:10f12000c208dd0065807800900188008180e800d9
:10f13000e580780006006400810040003200e200b3
:10f140004220ae0001f0a0001181fb000804e8009d
:10f1500002c14500cc10de00c208dd0065807800e9
:10f16000900188008180e800e58078000600610059
:10f17000810040003200e2004220ae0001f0a00019
:10f180009181fb0083415500100280000700680058
:10f19000b000b2008703680040000500cc40de00ec
:10f1a000c208dd0065807800900188008180e80059
:10f1b000e580780006006400810040003200e20033
:10f1c0004220ae0001f0a0001181fb000804e8001d
:10f1d000cc10de00c208dd00658078009001880058
:10f1e0008180e800e5807800060061008100400031
:10f1f0003200e2004220ae0001f0a0009181fb004d
:10f200000201e800cc10de00c208dd006580780055
:10f21000900188008180e800e580780006006100a8
:10f22000810040003200e2004220ae0001f0a00068
:10f230001181fb000280fd00830171000301460083
:10f2400083016900c819de004220af006030ec0085
:10f25000cc10de00c208dd006580780090018800d7
:10f260008180e800e58078000600610081004000b0
:10f270003200e2004220ae0001f0a0009181fb00cc
:10f28000834155001002800007006800b000b20002
:10f290008703680050000500cc40de00c208dd0096
:10f2a00065807800900188008180e800e580780022
:10f2b00006006400810040003200e2004220ae00ff
:10f2c00001f0a0009181fb000804e800cc40de00c2
:10f2d000c208dd0065807800900188008180e80028
:10f2e000e580780006006400810040003200e20002
:10f2f0004220ae0001f0a0001181fb000804e800ec
:10f300000280fd0003017100cc10de00c208dd00a8
:10f3100065807800900188008180e800e5807800b1
:10f3200006006100810040003200e2004220ae0091
:10f3300001f0a0009181fb0083c155001002800004
:10f3400007006800b000b2008703680040000500b5
:10f35000080178000804e800cc10de00c208dd00d7
:10f3600065807800900188008180e800e580780061
:10f3700006006100810040003200e2004220ae0041
:10f3800001f0a0009181fb0083c1550010028000b4
:10f3900007006800b000b200870368002000050085
:10f3a000cc40de00c208dd00658078009001880056
:10f3b0008180e800e580780006006400810040005c
:10f3c0003200e2004220ae0001f0a0001181fb00fb
:10f3d0000804e800cc10de00c208dd00658078007b
:10f3e000900188008180e800e580780006006100d7
:10f3f000810040003200e2004220ae0001f0a00097
:10f400009181fb0083c15500100280000700680055
:10f41000b000b2008703680030000500cc40de0079
:10f42000c208dd0065807800900188008180e800d6
:10f43000e580780006006400810040003200e200b0
:10f440004220ae0001f0a0009181fb000804e8001a
:10f45000cc40de00c208dd006580780090018800a5
:10f460008180e800e58078000600640081004000ab
:10f470003200e2004220ae0001f0a0001181fb004a
:10f480000804e8000280fd0003017100cc10de00da
:10f49000c208dd0065807800900188008180e80066
:10f4a000e580780006006100810040003200e20043
:10f4b0004220ae0001f0a0009181fb008341560084
:10f4c0001002800007006800b000b20087036800e7
:10f4d00040000500080178000804e800cc10de00b8
:10f4e000c208dd0065807800900188008180e80016
:10f4f000e580780006006100810040003200e200f3
:10f500004220ae0001f0a0009181fb008341560033
:10f510001002800007006800b000b2008703680096
:10f5200020000500cc40de00c208dd0065807800c8
:10f53000900188008180e800e58078000600640082
:10f54000810040003200e2004220ae0001f0a00045
:10f550001181fb000804e800cc10de00c208dd00c9
:10f5600065807800900188008180e800e58078005f
:10f5700006006100810040003200e2004220ae003f
:10f5800001f0a0009181fb00834156001002800031
:10f5900007006800b000b200870368003000050073
:10f5a000cc40de00c208dd00658078009001880054
:10f5b0008180e800e580780006006400810040005a
:10f5c0003200e2004220ae0001f0a0009181fb0079
:10f5d0000804e800cc40de00c208dd006580780049
:10f5e000900188008180e800e580780006006400d2
:10f5f000810040003200e2004220ae0001f0a00095
:10f600001181fb000804e8000280fd000301710085
:10f61000cc10de00c208dd00658078009001880013
:10f620008180e800e58078000600610081004000ec
:10f630003200e2004220ae0001f0a0009181fb0008
:10f640008341e9001002800007006800a000b200ba
:10f6500087036800cc10de000488a5000b003a0088
:10f66000c208dd0065807800a00188008180e80084
:10f67000e580780006006100810040003400e2006f
:10f680004220ae0001f0a000834878006000050031
:10f69000cc40de00c208dd00658078009001880063
:10f6a0008180e800e5807800060064008100400069
:10f6b0003200e2004220ae0001f0a0009181fb0088
:10f6c0000804e800cc40de00c208dd006580780058
:10f6d000900188008180e800e580780006006400e1
:10f6e000810040003200e2004220ae0001f0a000a4
:10f6f0001181fb000804e8000280fd008301710015
:10f700000381450083016900c819de004220af0073
:10f710006030ec00cc10de00c208dd0065807800af
:10f72000900188008180e800e58078000600610093
:10f73000810040003200e2004220ae0001f0a00053
:10f740009181fb008341e9001002800007006800fe
:10f75000a000b20087036800cc10de000488a5007a
:10f760000b003a00c208dd0065807800a001880027
:10f770008180e800e580780006006100810040009b
:10f780003400e2004220ae0001f0a000834878007f
:10f79000700005000a45e9001002800007006800bb
:10f7a000a000b2008703680020000500cc40de0006
:10f7b000c208dd0065807800900188008180e80043
:10f7c000e580780006006400810040003200e2001d
:10f7d0004220ae0001f0a0001181fb000804e80007
:10f7e000cc10de00c208dd00658078009001880042
:10f7f0008180e800e580780006006100810040001b
:10f800003200e2004220ae0001f0a0009181fb0036
:10f810008341e9001002800007006800a000b200e8
:10f8200087036800cc10de000488a5000b003a00b6
:10f83000c208dd0065807800a00188008180e800b2
:10f84000e580780006006100810040003400e2009d
:10f850004220ae0001f0a00083487800500005006f
:10f86000cc40de00c208dd00658078009001880091
:10f870008180e800e5807800060064008100400097
:10f880003200e2004220ae0001f0a0001181fb0036
:10f890000804e80002c14500cc10de00c208dd000b
:10f8a00065807800900188008180e800e58078001c
:10f8b00006006100810040003200e2004220ae00fc
:10f8c00001f0a0009181fb008341e900100280005b
:10f8d00007006800a000b20087036800cc10de00bb
:10f8e0000488a5000b003a00c208dd00658078009e
:10f8f000a00188008180e800e580780006006100b2
:10f90000810040003400e2004220ae0001f0a0007f
:10f9100083487800600005008b45e90010028000f4
:10f9200007006800a000b2008703680020000500ff
:10f930000c46e9001002800007006800a000b20039
:10f940008703680020000500cc40de00c208dd000f
:10f9500065807800900188008180e800e58078006b
:10f9600006006400810040003200e2004220ae0048
:10f9700001f0a0009181fb000804e800cc40de000b
:10f98000c208dd0065807800900188008180e80071
:10f99000e580780006006400810040003200e2004b
:10f9a0004220ae0001f0a0001181fb000804e80035
:10f9b0000280fd0003017100cc10de00c208dd00f2
:10f9c00065807800900188008180e800e5807800fb
:10f9d00006006100810040003200e2004220ae00db
:10f9e00001f0a0009181fb0003456d001002800032
:10f9f00007006800a000b20087036800400005000f
:10fa0000cc40de00c208dd006580780090018800ef
:10fa10008180e800e58078000600640081004000f5
:10fa20003200e2004220ae0001f0a0009181fb0014
:10fa30000804e800cc40de00c208dd0065807800e4
:10fa4000900188008180e800e5807800060064006d
:10fa5000810040003200e2004220ae0001f0a00030
:10fa60001181fb000804e8000280fd0083017100a1
:10fa70000381450083016900c819de004220af0000
:10fa80006030ec00cc10de00c208dd00658078003c
:10fa9000900188008180e800e58078000600610020
:10faa000810040003200e2004220ae0001f0a000e0
:10fab0009181fb0003456d00100280000700680083
:10fac000a000b2008703680040000500cc40de00c3
:10fad000c208dd0065807800900188008180e80020
:10fae000e580780006006400810040003200e200fa
:10faf0004220ae0001f0a0009181fb000804e80064
:10fb0000cc40de00c208dd006580780090018800ee
:10fb10008180e800e58078000600640081004000f4
:10fb20003200e2004220ae0001f0a0001181fb0093
:10fb30000804e8000280fd00830171000301460013
:10fb400083016900c819de004220af006030ec007c
:10fb5000cc10de00c208dd006580780090018800ce
:10fb60008180e800e58078000600610081004000a7
:10fb70003200e2004220ae0001f0a0009181fb00c3
:10fb800003456d001002800007006800a000b2006d
:10fb90008703680040000500080178000804e800b9
:10fba000cc10de00c208dd0065807800900188007e
:10fbb0008180e800e5807800060061008100400057
:10fbc0003200e2004220ae0001f0a0009181fb0073
:10fbd00003456d001002800007006800a000b2001d
:10fbe0008703680020000500cc40de00c208dd006d
:10fbf00065807800900188008180e800e5807800c9
:10fc000006006400810040003200e2004220ae00a5
:10fc100001f0a0001181fb000804e800cc10de0018
:10fc2000c208dd0065807800900188008180e800ce
:10fc3000e580780006006100810040003200e200ab
:10fc40004220ae0001f0a0009181fb0003456d0051
:10fc50001002800007006800a000b200870368005f
:10fc600030000500cc40de00c208dd006580780071
:10fc7000900188008180e800e5807800060064003b
:10fc8000810040003200e2004220ae0001f0a000fe
:10fc90001181fb000804e800cc10de00c208dd0082
:10fca00065807800900188008180e800e580780018
:10fcb00006006100810040003200e2004220ae00f8
:10fcc00001f0a0009181fb000201e800cc10de00f1
:10fcd000c208dd0065807800900188008180e8001e
:10fce000e580780006006100810040003200e200fb
:10fcf0004220ae0001f0a0001181fb000280fd0057
:10fd000003017100cc10de00c208dd0065807800c0
:10fd1000900188008180e800e5807800060061009d
:10fd2000810040003200e2004220ae0001f0a0005d
:10fd30009181fb0003456d00100280000700680000
:10fd4000a000b2008703680050000500cc40de0030
:10fd5000c208dd0065807800900188008180e8009d
:10fd6000e580780006006400810040003200e20077
:10fd70004220ae0001f0a0001181fb000804e80061
:10fd800002c14500cc10de00c208dd0065807800ad
:10fd9000900188008180e800e5807800060061001d
:10fda000810040003200e2004220ae0001f0a000dd
:10fdb0009181fb000241e800cc10de00c208dd00aa
:10fdc00065807800900188008180e800e5807800f7
:10fdd00006006100810040003200e2004220ae00d7
:10fde00001f0a0001181fb000280fd000301710001
:10fdf000cc10de00c208dd0065807800900188002c
:10fe00008180e800e5807800060061008100400004
:10fe10003200e2004220ae0001f0a0009181fb0020
:10fe200003456d001002800007006800a000b200ca
:10fe30008703680060000500cc40de00c208dd00da
:10fe400065807800900188008180e800e580780076
:10fe500006006400810040003200e2004220ae0053
:10fe600001f0a0001181fb000804e80002c1450078
:10fe7000cc10de00c208dd006580780090018800ab
:10fe80008180e800e5807800060061008100400084
:10fe90003200e2004220ae0001f0a0009181fb00a0
:10fea00003456d001002800007006800a000b2004a
:10feb0008703680040000500cc40de00c208dd007a
:10fec00065807800900188008180e800e5807800f6
:10fed00006006400810040003200e2004220ae00d3
:10fee00001f0a0001181fb000804e800cc10de0046
:10fef000c208dd0065807800900188008180e800fc
:10ff0000e580780006006100810040003200e200d8
:10ff10004220ae0001f0a0009181fb000201e80048
:10ff2000cc10de00c208dd006580780090018800fa
:10ff30008180e800e58078000600610081004000d3
:10ff40003200e2004220ae0001f0a0001181fb006f
:10ff50000280fd00830171000301460083016900f6
:10ff6000c819de004220af006030ec00cc10de008b
:10ff7000c208dd0065807800900188008180e8007b
:10ff8000e580780006006100810040003200e20058
:10ff90004220ae0001f0a0009181fb0003456d00fe
:10ffa0001002800007006800a000b200870368000c
:10ffb00050000500cc40de00c208dd0065807800fe
:10ffc000900188008180e800e580780006006400e8
:10ffd000810040003200e2004220ae0001f0a000ab
:10ffe0009181fb000804e800cc40de00c208dd007f
:10fff00065807800900188008180e800e5807800c5
:020000040001f9
:1000000006006400810040003200e2004220ae00a1
:1000100001f0a0001181fb000804e8000280fd004f
:1000200003017100cc10de00c208dd00658078009d
:10003000900188008180e800e5807800060061007a
:10004000810040003200e2004220ae0001f0a0003a
:100050009181fb008341e8001002800007006800e6
:10006000a000b20087036800cc10de000488a50061
:100070000b003a00c208dd0065807800a00188000e
:100080008180e800e5807800060061008100400082
:100090003400e2004220ae0001f0a0008348780066
:1000a00060000500cc40de00c208dd0065807800fd
:1000b000900188008180e800e580780006006400f7
:1000c000810040003200e2004220ae0001f0a000ba
:1000d0009181fb000804e800cc40de00c208dd008e
:1000e00065807800900188008180e800e5807800d4
:1000f00006006400810040003200e2004220ae00b1
:1001000001f0a0001181fb000804e8000280fd005e
:10011000830171000381450083016900c819de0075
:100120004220af006030ec00cc10de00c208dd00e1
:1001300065807800900188008180e800e580780083
:1001400006006100810040003200e2004220ae0063
:1001500001f0a0009181fb008341e80010028000c3
:1001600007006800a000b20087036800cc10de0022
:100170000488a5000b003a00c208dd006580780005
:10018000a00188008180e800e58078000600610019
:10019000810040003400e2004220ae0001f0a000e7
:1001a00083487800700005000a45e80010028000ce
:1001b00007006800a000b200870368002000050067
:1001c000cc40de00c208dd00658078009001880028
:1001d0008180e800e580780006006400810040002e
:1001e0003200e2004220ae0001f0a0001181fb00cd
:1001f0000804e800cc10de00c208dd00658078004d
:10020000900188008180e800e580780006006100a8
:10021000810040003200e2004220ae0001f0a00068
:100220009181fb008341e800100280000700680014
:10023000a000b20087036800cc10de000488a5008f
:100240000b003a00c208dd0065807800a00188003c
:100250008180e800e58078000600610081004000b0
:100260003400e2004220ae0001f0a0008348780094
:1002700050000500cc40de00c208dd00658078003b
:10028000900188008180e800e58078000600640025
:10029000810040003200e2004220ae0001f0a000e8
:1002a0001181fb000804e80002c14500cc10de000b
:1002b000c208dd0065807800900188008180e80038
:1002c000e580780006006100810040003200e20015
:1002d0004220ae0001f0a0009181fb008341e800c4
:1002e0001002800007006800a000b20087036800c9
:1002f000cc10de000488a5000b003a00c208dd0027
:1003000065807800a00188008180e800e5807800a1
:1003100006006100810040003400e2004220ae008f
:1003200001f0a00083487800600005008b45e800dc
:100330001002800007006800a000b2008703680078
:10034000200005000c46e80010028000070068004d
:10035000a000b2008703680020000500cc40de004a
:10036000c208dd0065807800900188008180e80087
:10037000e580780006006400810040003200e20061
:100380004220ae0001f0a0009181fb000804e800cb
:10039000cc40de00c208dd00658078009001880056
:1003a0008180e800e580780006006400810040005c
:1003b0003200e2004220ae0001f0a0001181fb00fb
:1003c0000804e8000280fd000301710002047800c7
:1003d00030000500cc40de00c208dd0065807800fa
:1003e000900188008180e800e580780006006400c4
:1003f000810040003200e2004220ae0001f0a00087
:100400009181fb000804e800cc40de00c208dd005a
:1004100065807800900188008180e800e5807800a0
:1004200006006400810040003200e2004220ae007d
:1004300001f0a0001181fb000804e8000280fd002b
:1004400003017100cc10de00c208dd006580780079
:10045000900188008180e800e58078000600610056
:10046000810040003200e2004220ae0001f0a00016
:100470009181fb000201e800cc10de00c208dd0023
:1004800065807800900188008180e800e580780030
:1004900006006100810040003200e2004220ae0010
:1004a00001f0a0001181fb000280fd00030171003a
:1004b0000204780050000500cc40de00c208dd00d8
:1004c00065807800900188008180e800e5807800f0
:1004d00006006400810040003200e2004220ae00cd
:1004e00001f0a0009181fb000804e800cc40de0090
:1004f000c208dd0065807800900188008180e800f6
:10050000e580780006006400810040003200e200cf
:100510004220ae0001f0a0001181fb000804e800b9
:100520000280fd000301710002814500cc10de0055
:10053000c208dd0065807800900188008180e800b5
:10054000e580780006006100810040003200e20092
:100550004220ae0001f0a0009181fb000201e80002
:10056000cc10de00c208dd006580780090018800b4
:100570008180e800e580780006006100810040008d
:100580003200e2004220ae0001f0a0001181fb0029
:100590000280fd0003017100020478006000050084
:1005a000cc40de00c208dd00658078009001880044
:1005b0008180e800e580780006006400810040004a
:1005c0003200e2004220ae0001f0a0009181fb0069
:1005d0000804e800cc40de00c208dd006580780039
:1005e000900188008180e800e580780006006400c2
:1005f000810040003200e2004220ae0001f0a00085
:100600001181fb000804e8000280fd000301710075
:100610000804e9000880fd00cc48de000488a5003d
:100620000b003a00c208dd0065807800a001880058
:100630008180e800e5807800068064008100400049
:100640003400e2004220ae0001f0a00088487800ab
:100650008944e9000880fd00cc48de000488a5003c
:100660000b003a00c208dd0065807800a001880018
:100670008180e800e5807800068064008100400009
:100680003400e2004220ae0001f0a000884878006b
:100690008944e9000204780060000500cc40de00d7
